:020000040800F2
:10000000881200106D2A0008A12A0008A12A000801
:10001000A12A0008A12A0008A12A00080000000067
:10002000000000000000000000000000A12A0008FD
:10003000A12A000800000000A12A0008A12A000847
:10004000A12A0008A12A0008A12A0008A12A000864
:10005000A12A0008A12A0008A12A0008A12A000854
:10006000A12A0008A12A0008A12A0008A12A000844
:10007000A12A0008A12A0008A12A0008A12A000834
:10008000A12A0008A12A0008A12A0008A12A000824
:10009000A12A0008A12A0008A12A0008A12A000814
:1000A000A12A0008A12A0008A12A0008A12A000804
:1000B000A12A0008A12A0008A12A0008A12A0008F4
:1000C000A12A0008A12A0008A12A0008A12A0008E4
:1000D000A12A0008A12A0008A12A0008A12A0008D4
:1000E000A12A0008A12A0008A12A0008A12A0008C4
:1000F000A12A0008A12A0008A12A0008A12A0008B4
:10010000A12A0008A12A0008A12A0008A12A0008A3
:10011000A12A0008A12A0008A12A0008A12A000893
:10012000A12A0008A12A0008A12A0008A12A000883
:10013000A12A0008A12A0008A12A0008A12A000873
:10014000A12A0008A12A0008A12A0008A12A000863
:10015000A12A0008A12A0008A12A0008A12A000853
:10016000A12A0008A12A0008A12A0008A12A000843
:10017000A12A0008A12A0008A12A0008A12A000833
:10018000A12A0008A12A000810B5054C237833B92C
:10019000044B13B10448AFF300800123237010BD5A
:1001A000C0010020000000001C9A000808B5034BA5
:1001B0001BB103490348AFF3008008BD00000000F5
:1001C000C40100201C9A0008154B002B08BF134BDC
:1001D0009D46A3F5803A00218B460F461348144AEA
:1001E000121A07F0E9FB0F4B002B00D098470E4B7B
:1001F000002B00D098470020002104000D000D487E
:10020000002802D00C4802F01DFA07F023FB200062
:10021000290002F079FB02F012FA00BF000008008A
:100220008812001000000000F9280008C00100201A
:10023000B849002045260008000000000020704753
:10024000002070472DE9D04F9B4603689B6A924679
:100250000446DDE90889984702460B465046594650
:1002600007F016FE134302D00020BDE8D08F2368AC
:1002700020469B6A984702460B464046494607F08F
:1002800007FE1343F0D123681AEB08069B6B204648
:100290004BEB09079847B94208BFB0422CBF012079
:1002A0000020E2E72DE9D04F9B4603685B6A924647
:1002B0000446DDE90889984702460B4650465946F0
:1002C00007F0E6FD134302D00020BDE8D08F23687D
:1002D00020465B6A984702460B464046494607F06F
:1002E000D7FD1343F0D123681AEB08069B6B204619
:1002F0004BEB09079847B94208BFB0422CBF012019
:100300000020E2E70368DB6A1847012000217047FC
:10031000D0F83C010021704790F8643123B100F51A
:10032000A470D0E900017047002000217047FF2031
:100330007047000000487047058A000801682DE9F1
:10034000F041096B14461D460646884702460B4697
:100350002046294607F09CFD134302D00020BDE84B
:10036000F081DDE90623A71845EB0308336817F190
:10037000FF32196B304648F1FF33884702460B467F
:100380003846414607F084FD1343E7D133683046D1
:100390009B6B9847414508BFB8422CBF0120002005
:1003A000DDE7000037B5054604461D4845F8040B57
:1003B0004FF0FF300090284601F04AF804F168033E
:1003C0001C221846002107F0F7FA9DF9181001F0D9
:1003D00011FD04F5A473002000210322C3E90001EC
:1003E000C4F8502108220023C4F85421C4F85C2129
:1003F0000122C4F8603184F86431C4F85831C4F87B
:100400003C31C4F8B42084F830312846079900F014
:1004100039FF236FA26E1A60204603B030BD00BFC3
:10042000148A00082DE9F74F9A46FF23CAF80030D6
:100430004B78CAF800301C2A814606DC2B4806F0AF
:10044000CDF9002003B0BDE8F08F0C9C0D9E002775
:10045000043C0D464FF00108BB46FF2344F8043F1F
:100460002A7F012312B15B00013AFBE733600137B9
:1004700022681F480196394606F0B0F93368012B0F
:100480001FD96B7F23603368D9F83C21934200D396
:100490000AB9C9F83C313368B3F5805F0BD12368E2
:1004A000DAF800209A4204D0CAF80030114806F069
:1004B00095F94FF0010B99F8303148EA030389F8B8
:1004C0003031019B22681B680B48394606F086F9DB
:1004D0004FEA4808042F06F104065FFA88F805F190
:1004E0000205BAD1BBF1000FA8D0AAE79385000896
:1004F000CB8500080486000874860008F0B51D4608
:1005000000F5A4731446D3E90023AB4208BFA2420E
:1005100016D3D0F8B41099B101290FD000EBC10067
:100520008B1ED830002B0BDB70E90267AF4208BF8F
:10053000A64201D2581CF0BD013BF3E70020FAE7C8
:100540004FF0FF30F7E7000038B50446FFF7D6FF5D
:10055000431CD4F83C510AD02044002290F83011BA
:100560000123194206D004EB8204D4F8A450284693
:10057000002138BD01325B00042A5BB2F1D1024890
:1005800006F02CF9F3E700BFFD810008F0B5059EE9
:100590008446032400200825F31A0E782E420BD03F
:1005A0000CEB8400D0F8A470974201DA9F4209DB7B
:1005B00026EA05060E70204614F1FF344FEA550571
:1005C000EBD2F0BD2046FCE7036823B9036813B9FA
:1005D00000F108030360184670472DE9F04B1546FB
:1005E000D0F85C2106464FEAD209426F806E106057
:1005F00006F104084046DDE908B700F08FFED6F8A2
:10060000504104F10054013CE400002C11DBC4F122
:100610002000A4F120022BFA04F107FA00F00143B4
:1006200027FA02F21143C9B2404600F077FE083CB7
:10063000EBE700244C4513D105F1FF3900240025D8
:10064000DDE90A239D4208BF94420FD000214046B5
:1006500000F064FE013409F8010F45F10005EFE7F1
:100660000021404600F05AFE0134E3E7326FB36EDA
:1006700013600020BDE8F08BF0B51F4690F86431A0
:1006800085B004460D46164613B3D0F884101248C0
:1006900006F0A4F81148FFF797FFD4F85431C4F8D6
:1006A0005C31DDE90A23CDE90067CDE90223D4F806
:1006B00084102A462046FFF790FFD4F85831C4F83A
:1006C0005C3105460548FFF77FFF284605B0F0BDC1
:1006D0006FF47A65F9E700BF59880008E00100204F
:1006E0002DE9F04395B0002304ADCDE90223CDE917
:1006F00000132A465A210446FFF76FFF38B12D48F0
:1007000006F06CF84FF0FF3015B0BDE8F0839DF8AF
:10071000103003F00303032B04D09DF811300BB904
:100720002548EDE79DF8122001320A2AC4F8B420CA
:1007300004DD0A21214806F051F8E3E7002304F123
:10074000B80904F5987804F1E00E4FF00F0C184644
:100750000130824255F8201015F8206021F0FF0189
:1007600001F5807149F8041B01F1FF3106F00F0615
:100770000B4408F8016B4FEAE3770CEA060C1E46BF
:10078000EEE8026703F10103E2DC0122002312EA32
:100790000C0007D004EB83030020D3F8A430C4F886
:1007A0003C31B1E701335200042BD2B2EFD1C4F88F
:1007B0003C01A9E782840008B68400080D85000882
:1007C00030B5002395B01546CDE90223CDE90013DD
:1007D00004AA5A210446FFF700FF30B1214805F072
:1007E000FDFF4FF0FF3015B030BD9DF8123013F013
:1007F000040203D19DF91730002B01DA1A48EEE705
:10080000059BC4F84C210133DB08C4F848310322AE
:100810000223C4E92123282D4FF02003C4F88C3093
:1008200007DD9DF838200123121122B15B00013A47
:10083000FBE74FF48073C4F8403104F1A403019343
:1008400004F1940300932A4604F1900304A920467E
:10085000FFF7E8FDD4F89030C4F88C300020C4F8DD
:100860005401C0E7828400085D8500082DE9F04F3F
:100870008FB04FF0000807930823C0F85431C0F838
:100880005C31CDE9051299460022CDE902380023FA
:10089000CDE900235A210AAA0646FFF79EFE40B181
:1008A000364805F09BFF4FF0FF3420460FB0BDE8FF
:1008B000F08F042232490AA807F064F80446D0B940
:1008C0009DF82D30012B16D12E4805F087FF9DF89D
:1008D0002E702546CA46C3465A21CDE90298CDE975
:1008E00000AB08AA3046FFF778FE691C28B12648FD
:1008F00005F074FFD7E72548D3E79DF82220012AA9
:1009000001D02348F4E79DF82020FAB99DF827206C
:10091000FF2A13D19DF825209DF82600059B120281
:1009200042EA00429DF8240002431A609DF8232009
:10093000069B9200402AA8BF40221A601AF1080ABA
:100940004BF1000B8F420D46C6DAAEE7512AF5D1C6
:100950009DF82720FF2AF1D19DF825209DF826003B
:10096000079B120242EA00429DF8240002431A60EB
:100970009DF82320189B9200DFE700BF5F830008EB
:10098000878300088C83000814840008D383000840
:10099000468400082DE9F84F9046D0F85C210646C1
:1009A0004FEAD209426F806E1060351D2846DDE99E
:1009B0000AB700F0B3FCD6F8504104F10054013CF2
:1009C000E400002C11DBC4F12000A4F120022BFA7A
:1009D00004F107FA00F0014327FA02F21143C9B209
:1009E000284600F09BFC083CEBE700244C4515D161
:1009F00008F1FF384FF0000A4FF0000BDDE90C342E
:100A0000A34508BF9A450FD018F8011F284600F0EB
:100A100085FC1AF1010A4BF1000BEFE70021284693
:100A200000F07CFC0134E1E7326FB36E136000200C
:100A3000BDE8F88F2DE9F7431F46436FD0F85C916E
:100A4000164600F10408826E1A600546404600F022
:100A500065FC7B1C08BFB6F1FF3F24D0D5F85041A0
:100A600004F10054013CE400002C0ADA4FEAD909F1
:100A700000244C4517D20021404600F04FFC0134C1
:100A8000F7E7C4F12002A4F1200326FA04F107FAE3
:100A900002F2114327FA03F31943C9B2404600F0AA
:100AA0003DFC083CE0E70D9B00930A99DDE90B2330
:100AB000404600F043FC2B6FAA6E1A60002003B082
:100AC000BDE8F08330B5054685B01548FFF77CFDDD
:100AD00095F864413CB9C5F860411148FFF774FDD1
:100AE000204605B030BDD5F86031013BC5F8603116
:100AF000A3B9CDE90233CDE900334FF0FF324FF017
:100B0000FF3304212846FFF795FF044610B105483E
:100B100005F064FE002385F86431DEE70024DCE79D
:100B2000E0010020868900082DE97F43DDE90A897C
:100B30000546CDE900890A4814460E4605F04EFEEA
:100B4000084A22400024CDE90244CDE90044D317ED
:100B500031462846FFF76EFF204604B0BDE870839B
:100B60002683000800F0FF002DE9F041DFF85880EF
:100B700086B0054642F21074012705AE012001F04F
:100B8000D9FE0023CDE90033CDE902674FF0FF32F3
:100B90004FF0FF3305212846FFF74CFF10B14046C8
:100BA00005F01CFE9DF81430DB0706D5013CE5D1AD
:100BB000044805F013FE204600E0012006B0BDE821
:100BC000F08100BFD8810008A881000870B586B008
:100BD00006AE0024054626F8044D1F4805F0FEFD2C
:100BE0000123CDE90263CDE900444FF0FF324FF01D
:100BF000FF3305212846FFF71DFF78B9CDE9020034
:100C0000CDE900004FF0FF324FF0FF336621284658
:100C1000FFF710FF28B1114805F0E0FD4FF0FF3459
:100C200014E0CDE90200CDE900004FF0FF324FF0B3
:100C3000FF3399212846FFF7FDFE50B1084805F023
:100C4000CDFD4FF0FF342846FFF78EFF204606B05B
:100C500070BD0446F7E700BF3582000857820008E0
:100C60007D82000870B5002386B0CDE90233CDE95E
:100C700000334FF0FF324FF0FF3306210546FFF7F8
:100C8000D9FE044630B1144805F0A8FD4FF0FF30FE
:100C900006B070BD2846FFF767FF08B90F48F3E7B5
:100CA00005AE02222146304606F086FE0123CDE93C
:100CB0000263CDE900444FF0FF324FF0FF330521CE
:100CC0002846FFF7B7FE08B10548DDE79DF8143068
:100CD0009B07DDD40348D7E7A1820008CD82000836
:100CE000A8810008FC8200082DE9F04F9B4690F88F
:100CF000643185B004460D469246002B52D0DFF891
:100D0000B080DDE90E2313434FD0D4F84091002783
:100D10004A463B465046594607F0BAF8DDE90E010F
:100D200080185941B94208BF4845214834BFDDF811
:100D30003890A9EB0209FFF747FC2046FFF792FF26
:100D400050B11C481C4C05F049FD1948FFF73CFC0C
:100D5000204605B0BDE8F08F00274E46CDE900AB38
:100D6000CDE902672A46D4F888102046FFF712FE24
:100D7000DDE90E231AEB090A4BEB070BB2EB090274
:100D800063EB070320464D44CDE90E23FFF7ECFE4D
:100D900020B90A480A4C05F021FDD6E74046FFF786
:100DA00013FCAEE76FF47A64D2E70024D0E700BF0B
:100DB000E0010020AB8900085CF0FFFFCF8900084C
:100DC0005DF0FFFF2DE9F04F90F8641187B0044605
:100DD00092469B46DDE91067002900F09E80FFF7F0
:100DE0008DFB2318524693F830318DF81730CDE93A
:100DF00000675B4680464B4805F0F0FC16EB0A02A4
:100E000047EB0B031F4604F5A47335461646D3E99A
:100E10000023BB4208BFB24206D2434805F0DEFCC5
:100E2000424807B0BDE8F08F23685246D96C20468F
:100E30005B46884702460B465046594607F028F85D
:100E400013433FD1236816F1FF32D96C204647F196
:100E5000FF33884702460B463046394607F018F8FC
:100E600013432FD1324F002D5ADD04EBC8092A4617
:100E7000D9F8E03000930DF1170153462046FFF7F3
:100E800085FB04EB80005946D0F8A460D0F894307C
:100E9000039332460023504606F0FAFFAB189E42F9
:100EA000384694BFB61A2E46FFF78EFB2046FFF752
:100EB000D9FE48B11F4805F091FC1D48FFF784FB9F
:100EC0001D48AEE71D48A9E72A46EB17CDE90023E8
:100ED000039952465B462046FFF726FEAD1B1AEBF0
:100EE000060A4BF1000B002D0DDDD9E938235B45D7
:100EF00008BF52453FBF08F1010804EB080393F80F
:100F000030318DF817302046FFF72EFE08B90C4817
:100F1000D1E73846FFF758FBA5E76FF47A6080E722
:100F200000207EE77A880008AC8800085BF0FFFFAD
:100F3000E0010020178900085DF0FFFFDC88000851
:100F40004B89000830B5044600238BB04848CDE9F2
:100F50000633CDE90833FFF737FB94F864310BB95A
:100F6000C4F86031D4F860310133012BC4F860312A
:100F70007BD12046FFF72AFE01300AD13D4805F01B
:100F80002DFC6FF47A653A48FFF71EFB28460BB03C
:100F900030BD394805F022FC0323039305AB0293CF
:100FA0000023CDE900334FF0FF324FF0FF339F2194
:100FB0002046FFF73FFD054608B13048DFE79DF8C2
:100FC0001430BF2B0ED12046FFF74CFECDE9025561
:100FD000CDE900554FF0FF324FF0FF339821204606
:100FE000FFF728FD2046FFF7BFFD20B92448254D17
:100FF00005F0F4FBC7E709AB009307AA08AB06A905
:101000002046FFF733FC20B11F48204D05F0E6FBDA
:10101000B9E7DDE906122046FFF7D2FB054608B125
:101020001B48F2E704F5A473D3E9000110F1FF3285
:1010300041F1FF330899C4F8B800C4E9382361B11D
:10104000099A52B1134805F0C9FBDDE908122046A0
:10105000FFF746FB08B11048D7E7D4F85831C4F879
:101060005C31012384F864318DE700258BE700BFF4
:10107000E0010020A9860008F18600081C8700080E
:10108000498700085DF0FFFF758700085EF0FFFFED
:10109000A6870008DC8700082488000838B50446C5
:1010A000054B44F8043B0546FFF70CFD204600F0D5
:1010B0005FF9284638BD00BF148A000810B5044601
:1010C000FFF7ECFF204601F0FBFB204610BD704708
:1010D000704704F085B804F0A3B804F0A5B804F094
:1010E000B3B8000070B50B4E05463046FFF76CFAFA
:1010F000284603F0A9FF0446284604F08FF801F0C3
:10110000DDFB68603046FFF75FFA201C18BF012046
:10111000404270BDF001002038B505460948FFF790
:1011200053FA284603F092FF003018BF01204442D2
:10113000686808B101F0C6FB0248FFF745FA20468F
:1011400038BD00BFF00100202DE9F0410A4C0F46E8
:101150001646054698462046FFF736FA43463A4675
:101160003146284600F01CFE05462046FFF72CFAC3
:101170002846BDE8F08100BFF0010020C36810B52B
:1011800004460BB19B689847204610BD704710B5C8
:10119000044601F095FB204610BD000008B5037D14
:1011A00013B90248FFF710FA08BD00BF0002002083
:1011B0004368D3F8A02032B9D3F8A0201AB903F1BC
:1011C000A802C3F8A020704730B4446801466CB14F
:1011D000D0E9032303F0010502B93DB15B10E0182B
:1011E0000DB1E3589A58896830BC104730BC70473D
:1011F00038B5054601F002F9074B1B68002B08DDE6
:10120000064C2078A84218BF002401F001F92046BE
:1012100038BD0024F9E700BF380300201002002089
:10122000044A1368591C1160034A4FF4947000FB80
:1012300003207047380300201002002037B5044611
:101240004068D0F8B030A3421AD094F9355094F9E0
:10125000343094F9332094F932100095043004F0BE
:1012600055FC60680023D4E91512043004F0FCFC3E
:101270006068E16D043004F029FD6368C3F8B04094
:1012800003B030BD036870B504461B690D4698472E
:101290006068E565D0F8B030A34209D12946043032
:1012A00004F014FD236820465B69BDE870401847D0
:1012B0002046FFF7C3FFF5E790F94830013303D02C
:1012C000836B11B1026C13607047426CFBE738B559
:1012D000036804461B69984794F961506B1C84F8B5
:1012E000613045B92046FFF7A9FF29462046BDE8F1
:1012F0003840FFF7E1BF38BD10B590F86130013BD1
:101300005BB2044680F8613013B90121FFF7D4FFC6
:10131000236820465B69BDE81040184738B504468D
:101320000D46FFF7D4FF60682946043004F0ECFC5A
:1013300005462046FFF7E0FF284638BDF7B50446CE
:101340001F460D461646FFF7C2FF94F860306068EE
:101350000193089B009329463B463246043004F033
:1013600003FD05462046FFF7C7FF284603B0F0BD42
:101370000B4B10B503600446FFF71AFF4368D3F820
:10138000B020824204BF0022C3F8B020FFF710FF54
:101390002030FFF7F3FEE06900F08CFF204610BD1F
:1013A000808A000810B50446FFF7E2FF204601F0EE
:1013B00087FA204610BD38B500250446294640F876
:1013C000045B282206F0F8FA1022294604F11800DE
:1013D00006F0F2FA204638BD38B5044605688DB9E6
:1013E00005687DB910F108050BD02846FFF7E3FF2B
:1013F00004F13400FFF7DFFF0023C4E9183384F859
:1014000068302560284638BD38B500250823C0E976
:1014100015350E4BC365FF2380F8305080F83150EE
:10142000A0F86030044600F0E9FF2846FFF7E0FE30
:101430000546606018B9FFF7F3FE6060057000F0C4
:10144000E7FF6068B830FFF7C7FF38BD40420F00C4
:101450002DE9F04104461E46154B03600025154B4F
:10146000E06088461746C0E9045585618360C56120
:1014700029461022203006F09FFA9DF9183084F892
:10148000353004F138031C221846294684F832808E
:1014900084F8337084F8346006F08EFA4FF0FF3130
:1014A00000F0A8FC2046FFF7AFFF2046BDE8F08122
:1014B000808A0008C91100086FF0150070470368A2
:1014C0001B69184703689B69184703689B6A18479C
:1014D00000290CBF6FF018000020704701207047F2
:1014E0006FF0150070476FF0150070477047036884
:1014F00001221B6900211847036800221B6911465D
:1015000018470000024B0A461B680021184700BF1D
:10151000040000206C22002106F04EBA10B16C21AC
:10152000FFF7F0BF704700000023C0E90033C1B9E6
:10153000194A1A4BDFF88CC0C0E90223184B194A2C
:10154000C0E904C3184BC0E90623184B036203F13A
:101550007453A3F52303A3F69243436281660020EC
:101560007047134B134ADFF860C0C0E9022303F150
:10157000794303F5740303F5016303610E4BC0E97E
:1015800005C303F1D14303F5C01303F51E63C36123
:101590000A4B03620A4BE0E767E6096A85AE67BB60
:1015A0003AF54FA57F520E518C68059BABD9831F2E
:1015B00007D57C36D89E05C1310BC0FFA78FF964D3
:1015C000A44FFABE72F36E3C39590EF7FFF7ACBF69
:1015D0002DE9F04FCBB000F1080300931A460191BA
:1015E000002302A852F8041B40F823100133082BF3
:1015F000F7D1DDE90787DDE90236DDE904EBDDF847
:101600002490069909AA00240F2C5ED8019D05EBB1
:10161000840C15F824A09CF8035045EA0A659CF850
:1016200001A045EA0A459CF802A045EA0A25556052
:101630004FEAF12C88EA07058CEAB11C0D408CEAD0
:10164000716A7D400AEB050C2C4D55F82450654419
:1016500052F804CF6544A94446EA030A4FEA7335B9
:1016600009EB0B0C85EAB30506EA030B0AEA0E0A3E
:101670004AEA0B0A85EAB35501345544402C4D44DF
:10168000F346B9461AD1CDE90718CDE9046ECDE984
:1016900002530997CDF818C00023009A116802AAD6
:1016A00052F823200A440099013341F8042B082BF7
:1016B0000091F2D100204BB0BDE8F08FB64647460E
:1016C0001E4688462B4661469EE752F8045C52F857
:1016D00038AC52F8180C4FEAF54C8CEA754C8CEA91
:1016E000952C52F83C5C28444FEABA4585EAFA1535
:1016F000844485EADA0A0CEB0A0598E7988E00081C
:101700002DE9F84305460E46144612B90020BDE8FF
:10171000F883036803F03F07D318036022BF4368D0
:1017200001334360A7B1C7F14008424510D300F12F
:101730002809424609EB070006F033F949462846D6
:10174000FFF746FF0028E2D14644A4EB0804074611
:10175000264405E02846FFF73BFF0028D7D1403C50
:101760003F2CA6EB0401F5D8002CCFD005F12800C2
:101770002246384406F015F9C8E7FFF7C1BF0368F1
:1017800003F03F035A1C034470B5382A0D4600F19C
:1017900028064FF08001044683F8281006EB02006B
:1017A00073D8C2F13802002106F006F9D4E90031FD
:1017B0005A0F42EAC102110EDB0084F86010110CCE
:1017C00084F8611084F86320110A1A0E84F86420EA
:1017D0001A0C84F865201A0A84F8621084F86620CE
:1017E00084F8673031462046FFF7F2FE00284BD1DF
:1017F000E37A2B7063896B70A3681B0AAB70A368D4
:10180000EB70E37B2B71E3896B71E3681B0AAB71AF
:10181000E368EB71E37C2B72638A6B7223691B0AAA
:10182000AB722369EB72E37D2B73E38A6B7363699D
:101830001B0AAB736369EB73E37E2B74638B6B746E
:10184000A3691B0AAB74A369EB74E37F2B75E38B6D
:101850006B75E3691B0AAB75E369EB7594F823308C
:101860002B76638C6B76236A1B0AAB76236AEB7646
:10187000A36E4BB994F827302B77E38C6B77636AB0
:101880001B0AAB77636AEB7770BD0021C2F140029F
:1018900006F092F831462046FFF79AFE0028F3D171
:1018A0000146382230467FE7FFF769BF10B50723AE
:1018B00000220121C40744BF01FA03F4224313F1BB
:1018C000FF334FEA5000F5D2104610BD2DE9F04F1E
:1018D0009BB0074607A815460C460393FFF7F7FB96
:1018E000102200210BA806F067F855B9A448A54CB2
:1018F00004F074FF07A8FFF7EBFB20461BB0BDE820
:10190000F08F07A8FFF7EEFB064628B101469E4878
:101910009E4C04F063FFEDE7394607A8FFF7D9FBBB
:1019200007F18F039C420BD29948964C04F056FF66
:101930009449984804F052FF07A8FFF7EDFBD9E758
:1019400007A8FFF7C8FB804607A8FFF7C6FB40447F
:101950008442E9D8631CDC1B4FEA5408B04507EB0E
:10196000060104D907A8FFF7B4FB0644F6E78A4B43
:101970000D91002BCDE90B76A4EB060414BF0123D7
:101980000223864F0E94029300260DF12C0A07A81D
:10199000FFF7A5FB5AF8362009AC804608234032F1
:1019A000214607A8FFF7D0FB28B9235C43455FD148
:1019B00001300828F9D12EB179497A48784C04F0E1
:1019C0000DFFB9E70126E2E7734B1893029B8DF8F0
:1019D00064307DE04146284603F0D6FD4FF0000B11
:1019E0009DF864206ABB03F0D9FD834614A8FFF775
:1019F000D5FB0A9A5A459FD0DDE7DDF860C09DF817
:101A00005C104FF000084FF00009DDE90023994514
:101A100008BF9045E4D205EB0800007829B1CDE974
:101A200004C1FFF743FFDDE904C180EA1B60C0B2D7
:101A300018F101085CF8200049F1000980EA0B2B3D
:101A4000E3E79DF85D207AB159461F224FF0000B65
:101A50000120CB0744BF00FA02FC4BEA0C0B12F149
:101A6000FF324FEA5101F4D2169A8BEA020BBDE71E
:101A7000249BBDF8268013B1249BC3F80080039BF0
:101A8000434598D343465AF83620294607A8FFF71E
:101A90005BFB044600288ED1434B14934FF0FF327A
:101AA0000123CDE915208DF85D00202112908DF8DD
:101AB0004D000FA88DF85C300F97CDE910128DF80E
:101AC0004C3003F0FFFC00283FF47EAF8DF86440FB
:101AD00000231FFA88F2CDE900239DF86430CBB9CA
:101AE000324B1A6822B91A6812B903F108021A6057
:101AF00020231093159B1193169B12939DF85C3035
:101B00008DF84C300FA89DF85D300F978DF84D3053
:101B100003F0EAFC9DF86420DDF854B0012A3FF49C
:101B20006CAFFFF457AF022A7FF460AF9DF85C20E2
:101B30004FF000084FF00009DDE90001894508BFBA
:101B40008045BFF44DAF05EB080108781AB1049247
:101B5000FFF7ACFE049A8BEA006B08215846002878
:101B60004FEA4B0B01F1FF31B8BF8BEA070B11F0C5
:101B7000FF01F3D118F1010849F10009DCE700BFCA
:101B8000988F00080101FF80BB8F00080F01FF80C4
:101B9000E38F00081E900008988A0008B71DC10452
:101BA0000701FF804F9000086C8A000800020020A7
:101BB0002DE9F74F054668460E46FFF788FA4A4971
:101BC000084606F032F860B9484B2B604FF480535A
:101BD0002A681A4432602A68CAB983B94FF00108EA
:101BE00019E04349404806F020F810B900232B6063
:101BF000EEE740493C4806F018F80028F6D03E4C85
:101C00006846FFF765FA204603B0BDE8F08F002B69
:101C1000F5D04FF000086846FFF764FA0446002844
:101C200060D1364B36481844364BA0EB030A514678
:101C30006846FFF74EFA81466846FFF74CFA0746BA
:101C40006846FFF74AFA0744B8F1000F2FD1D5F8DC
:101C5000008068464146FFF73CFA2346024681462B
:101C60002146404606F014F9D6F800A000FB09F919
:101C70000AF1FF316846FFF72CFA4FF0000B80465F
:101C800002461AF1FF3023464BF1FF3106F000F90E
:101C90002B684B4500FB088804D13368434501D1CC
:101CA000BB421BD96846FFF737FA174CA8E7791EE5
:101CB0006846FFF70EFA4FF0000BA7EB40081AF149
:101CC000FF304A464BF1FF31234606F0E1F800FBB6
:101CD0000999C845E6D3C5F8008037606846FFF724
:101CE0001BFA8DE7094C8BE78090000800A00008E4
:101CF0008B900008989000080901FF80289A00083E
:101D0000C0010020000000200601FF800F01FF80BD
:101D100013B50F4C2378BFF35B8FD90715D420463A
:101D200000F09CFC88B10B4A0B480F23CDE9003230
:101D3000072106220523FEF735FB204600F09FFC15
:101D4000064A0749044800F078FC034802B010BD79
:101D50003C030020002D3101400300200000002042
:101D60009D100008EFF31083DB4372B6044A11782C
:101D700029B9044903F001030B7001231370704764
:101D8000A9040020A8040020034B00221A70034B72
:101D90001B7803B162B67047A9040020A804002094
:101DA00008B510461A4605F0FCFD002008BD38B500
:101DB00004460D4603685AB182681360204601212B
:101DC00003F05AFB29462046BDE8384003F050BBDB
:101DD000C268F2E770B50E460446154603F026FBCE
:101DE000013606D02A4620460021BDE87040FFF7A4
:101DF000DEBF70BD0022FFF7EDBF000013B5044643
:101E000001300FD102B010BDA3420AD1204689682B
:101E100003F00CFC0021204602B0BDE8104003F0A6
:101E20008DBC0C3191F900305A1CEDD10023009388
:101E300022461946014800F05DFB00BF30010180D9
:101E4000884207B502460AD0431C08D0013105D0AC
:101E5000002300931946044800F04CFB0146084655
:101E600003B05DF804FB00BF3001018091F9003040
:101E70005A1C01D118467047834201D14868704707
:101E80000C31F3E7431C07B50AD0FFF7EFFF431C03
:101E900006D10023024600931946034800F02AFBAE
:101EA00003B05DF804FB00BF300101802DE9F34D64
:101EB000D0F8048098F83A300446002B64D10368C7
:101EC0005B68984763681B6A83425DD0D8F820102E
:101ED000D8F80C30C8F82000411AD8F80860374804
:101EE000194086420C464FF0000546D098F83B302A
:101EF000A1FB00120027D8E90AABCDE90012002BA4
:101F000045D0009921FA03F40199C3F1200CA3F103
:101F1000200201FA0CFC21FA02F221FA03F5DDE9B4
:101F2000000144EA0C04144310EB0A00A3F1200C56
:101F300041EB0B01C3F1200205FA03FB04FA0CFC90
:101F400024FA02F204FA03FA4BEA0C0B4BEA020BF6
:101F5000B0EB0A0261EB0B03BB4208BFB24202D2F4
:101F6000C8E90A2309E0013445F10005921B63EB3F
:101F7000070310461946C8E90A01D8E90C010219FD
:101F800041EB0503C8E90C2302B0BDE8F08D3246F1
:101F90003B46DDE9000105F07BFF044612EB0A0039
:101FA0000D4643EB0B01B94208BFB042E3D3013405
:101FB00045F10005821B61EB0703D1E740420F00AA
:101FC000824206D98A420BD9884294BF0020012060
:101FD0007047884206D98A428CBF00200120704792
:101FE00001207047002070472DE9F74F466896F8AA
:101FF0003A300746002B40F0918096F83930002B9C
:1020000040F08C80FFF752FF7D68D7F800A0696828
:10201000002978D0D5E90C23D1E900018B4208BF13
:10202000824205D3DAF8143003B0BDE8F04F184708
:10203000801A61EB0301CDE90001DDE90023D5E958
:102040000601994208BF90422C6907D3A968354818
:10205000814218D1009B9C4228BF1C462A6ADAF8AC
:1020600010301444EA681440204698473B685B6887
:10207000984722460146306AFFF7A2FF00284DD05C
:102080003B685B69D0E795F83BC0BCF1000F28D0F6
:10209000019B244A03FA0CF31946009BACF120087B
:1020A00003FA08F841EA08031946009BDFF8788034
:1020B000CCF1200E23FA0EFE41EA0E031946009BD6
:1020C00003FA0CF318464FF0000910EB08004FF02C
:1020D000000341EB090105F0DBFE844228BF044602
:1020E000BCE7009BDFF840B00E4AA1FB0389019BCF
:1020F0004FF0000C01FB03991BEB08004FF00003AD
:102100004CEB0901E7E73369306AF2681844DAF802
:102110001030104003B0BDE8F04F184703B0BDE8E1
:10212000F08F00BF40420F003F420F0043682DE98F
:10213000F74F93F838200546002A60D193F83A30DB
:10214000002B5CD103681B6898472B68DB699847B4
:102150002C4BD0F800800122B8F1000F08BF984640
:102160001F2302FA03F141455FFA83FA02D0013BD3
:10217000F7D19A464468234E231F1D2B28BF2024E5
:10218000231F4FF0070918F1FF3009FA03F94FF048
:10219000000343F1FF314246C6FB090105F078FE1A
:1021A0006B682A6801934FF0000BC3E900BB5268CB
:1021B0000F4606469047019B0122186202FA04F47A
:1021C0006B6800210020013CC3E90A01C3E90C014E
:1021D000C3F80880284683F83BA0C3E90349C3E954
:1021E000066783F839B083F83AB083F83820FFF7F0
:1021F0005DFE284603B0BDE8F04FFFF7F5BE03B023
:10220000BDE8F08F40420F0070B5044600F0F6F8CC
:102210002368DB689847636893F83A201AB1BDE8F1
:10222000704000F0F5B8012283F8392063685B68DC
:10223000A3B12046FFF73AFE65686E68D5E90C0148
:10224000D6E90023994208BF904207D3F3686B6038
:102250002B68002BEAD0B0689847E7E76368002254
:1022600083F839202046FFF7BFFED8E738B504468B
:10227000FFF75CFF00F0C2F82046FFF717FE636827
:10228000D3E90C4500F0C4F82046294638BD08B50E
:10229000FFF7ECFF08BD000000487047A090000861
:1022A000024B1B680BB1024818477047080000201A
:1022B000A0900008024B1B6803B11847704700BF8D
:1022C000F00400200020704703460122D3E84F0F9E
:1022D000C3E8412FC0B20029F8D1704705F0C2BB56
:1022E00005F072BBF0B572B6234ADFF898C0002340
:1022F00013604FF0E0221C46516801F00F010131DC
:102300004FF0FF371E46A20002F1604202F5614223
:10231000C2F88070C2F880710022D518654401327D
:10232000082A85F80063F8D10134A14203F10803BB
:10233000E9DC124B4FF020625A6040F2FA5298608A
:10234000DA6000221E6111469C1801320C2A2176A7
:10235000FAD14FF0FF3259629A62094ADA621F22BB
:102360001A63D0E90031002282F314889D4682F37B
:1023700010880847F0BD00BF10E000E000ED00E06D
:10238000020000C000E100E000B589B000F036F8BE
:102390001F2101A8FFF72EFD104E114D0424039BB1
:1023A000019A1A60304600F0B6FA049B019A1A604E
:1023B000304600F0B0FA013CF1D10424039B019AAD
:1023C0001A60284600F0A7FA049B019A1A60284672
:1023D00000F0A1FA013CF1D1E0E700BFF0490200B2
:1023E000801A0600EFF31080C04300F00100704730
:1023F000EFF30580003018BF0120704708B5FFF7E4
:10240000B1FC024A13680133136008BDF4040020D4
:10241000044A136823B1013B13600BB9FFF7B4BC46
:10242000704700BFF404002008B50B48FFF74CFFCD
:1024300028B1FFF7E3FFBFF34F8F20BFFDE7FFF7A2
:10244000D7FF08B1FFF7A0FFFFF7CCFF0028F9D0B6
:10245000012000F0F4F800BF3805002070B5164CDC
:102460008EB034EA200428BF04460D4616460021EB
:10247000342201A805F0A0FACDE901460395FFF743
:10248000BDFF0E4A13680133012B136004D13422BF
:1024900001A90B4805F085FA342201A9094805F085
:1024A00080FA094B1B680BB106489847FFF7B0FF4D
:1024B00000200EB070BD00BF0101FF80F8040020B5
:1024C000040500203C050020FC0400200FB47246E7
:1024D00008B5064B0120D3E84F1FC3E8440FC9B22B
:1024E00011B90348FFF7BAFFFFF79EFF0005002070
:1024F0000001FF8008B51146064B0124D3E84F2F99
:10250000C3E8454FD2B212B97246FFF7A7FFFFF7F3
:102510008BFF00BF000500206FF01C0070476FF0BC
:102520001500704701207047002070477047000079
:10253000F8B5074E15460C468F18BC4205D014F866
:10254000011B304602F098FEF7E72846F8BD00BFB1
:102550001C09002038B58DB215F0010405D00848DB
:1025600003F02AF9041C18BF0124EB0605D5044822
:1025700003F032F908B144F01004204638BD00BF22
:102580001C09002010B5044605F0F4F9204610BDE2
:1025900010B50C462AB1044802F058FE2070012004
:1025A00010BD1046FCE700BF1C09002038B51D46D1
:1025B000074B0360074B1B68044633B9064803F01A
:1025C000C3F92946044803F055F9204638BD00BF39
:1025D000D4900008A80500201C09002000207047A6
:1025E0000020704738B50D4A0D4C13682578C11886
:1025F0004DB10C4DA94206D9002323700A4BC118D6
:102600001160184608E009488142F9D904F076FFC4
:102610000C2303604FF0FF3038BD00BF0C010020D9
:102620001001002000800010B84900200080012027
:1026300008B508B1FFF7A8FEFEE70120704708B50E
:10264000FFF7F6FF012070477047704708B5FFF7A6
:10265000FBFF08BD08B5FFF7F8FF08BD037803F0DE
:102660000303012B09D0037803F00302012A04D0ED
:1026700043F0020303700120704700207047037885
:1026800023F0030343F00103037070473F2870B544
:1026900004462FDC184D55F820305A1C13D102285F
:1026A00011DCFFF79DFF034658B92046FFF796FF60
:1026B000034630B9114E3378BFF35B8FDB0704D587
:1026C0000F4B45F82430184670BD3046FFF7C6FF63
:1026D0000028F5D04FF4E1332B222A210848FFF7D8
:1026E00065FF3046FFF7CBFF064A07490448FFF76E
:1026F000A4FFE5E70023E6E70C00002070050020BA
:1027000074050020000000202D25000838B505467E
:10271000FFF7BCFF0B4B002443F8254030B904F011
:10272000EDFE092303604FF0FF3038BD03685B699D
:102730009847051E04DA04F0E1FE6D420560F2E7F9
:102740002046F2E70C000020FFF7E0BF38B50C464A
:102750001546FFF79BFF38B904F0D0FE092303604C
:102760004FF0FF34204638BD03682146DB682A4617
:102770009847041EF6DA04F0C1FE64420460EFE7F5
:1027800008B5131E06DA04F0B9FE162303604FF0F5
:10279000FF3008BD04D0FFF7D9FF40EAE070F8E74A
:1027A0001846F6E738B50C461546FFF76FFF38B9FF
:1027B00004F0A4FE092303604FF0FF34204638BD27
:1027C000036821469B682A469847041EF6DA04F0FF
:1027D00095FE64420460EFE7002A08B503DBBDE81C
:1027E0000840FFF7DFBF04F089FE162303604FF0B7
:1027F000FF3008BD10B5FFF749FF044628B904F0C3
:102800007DFE09230360204610BD0368DB699847FD
:10281000041EF8DA04F072FE644204600024F2E759
:10282000FFF7E8BF38B50C461546FFF72FFF38B95C
:1028300004F064FE092303604FF0FF34204638BDE6
:10284000036821461B692A469847041EF6DA04F0FD
:1028500055FE64420460EFE7FFF7E4BF38B50D466C
:10286000FFF714FF044630B904F048FE0923036063
:102870004FF0FF3038BD0368DB699847002814BF6C
:102880004FF400534FF400436B60236820469B6A6B
:10289000984728610020EDE7FFF7E0BF13B5044635
:1028A00005F060F8034628B9009001462246024828
:1028B000FFF720FE02B010BD1F010180FFF7EEBF41
:1028C00005F058B805F056B870477047084B0949ED
:1028D00098684FF08053C21802F17042126843F8B2
:1028E000042B8B42F7D1024B4FF080529A60704715
:1028F00000ED00E08801001008B5FFF7E7FF02F0E7
:1029000067FEFFF7E2FF08BD08B5FFF7DDFFBDE892
:10291000084004F0E3BB70B50446FFF7BDFC064673
:10292000FFF7B5FC05463046FFF7B1FC401BA0425F
:10293000F9D370BD4FF47A735843FFF7ECBF000032
:102940000F49D1F8883043F47003C1F888300D4B3B
:102950001A68002042F001021A6098601A6822F09A
:10296000A85222F410221A604FF48052DA601A68DA
:1029700022F480221A609861034B8B60704700BF7D
:1029800000ED00E0001002400000000830B5B9B0D2
:10299000142200210546684605F00EF84422002165
:1029A00005A805F009F80021882216A805F004F80A
:1029B000264B196811F4806102D0002039B030BD77
:1029C00001246846009400F07FFE07230593002D44
:1029D00038D14FF48033CDE906340023142201248A
:1029E000089303250223CDE9114205A80722CDE96A
:1029F0000F35CDE91323159300F00AFC0028DCD134
:102A00000F23CDE90200049004216846CDE900358A
:102A100000F05AFE0028D0D10D4B16934FF44063BE
:102A2000299316A84FF48073379301F047F80028D4
:102A3000C3D110230B900F9005A8059300F0E8FB7D
:102A40002046BBE74FF4A0230693C6E700100240E0
:102A50002000020008B50020FFF798FF10B90248D7
:102A6000FFF734FD08BD00BF00920008DFF820D05A
:102A7000002103E0074B5B58435004310648074BE5
:102A800042189A42F6D3FFF75BFFFDF79DFB7047B4
:102A900088120010289A000800000020C0010020C1
:102AA000FEE7704708B5032000F008F80F2002F099
:102AB000ECFCFFF7F6FF002008BD0000074AD368D2
:102AC00023F4E0631B041B0C43F0BF63000243F4D8
:102AD000003300F4E0600343D360704700ED00E092
:102AE000F0B5960805680B4601EB8607BB4208D196
:102AF00012F003021ED0012A14D111F826302B70D7
:102B000018E05C7893F800C0240444EA0C6493F85D
:102B100003C044EA0C0493F802C044EA0C242C607D
:102B20000433E3E7022A08D111F826205B7843EA50
:102B300002232B8003681868F0BD5A7811F826101C
:102B400042EA01222A809B78D9E7006870B5002309
:102B500055089D4206D1D30744BF31F82530038084
:102B6000006870BD01EB830431F82360648844EA97
:102B7000064404600133ECE77047000010B50446DA
:102B800008B9012010BD437F03F0FF0213B902779B
:102B9000FFF7F2FF022363772379E3B92368134A2F
:102BA0005A619A6822F018029A6062792368D2B951
:102BB0004FF0FF321A619A68616922F060020A439D
:102BC0009A609A68A16922F080020A439A60012300
:102BD00063770020D6E7D4E90212204600F034F8EB
:102BE0000028E2D0CDE72269E4E700BFB71DC104A9
:102BF000F8B5037F012B04460E4615464FF002033D
:102C000020D04377036A0127022B077715D0032BC7
:102C100004D0BB4214D1FFF763FF04E00268002335
:102C2000AB4205D110680123637700232377F8BDF9
:102C300056F8231011600133F2E7FFF786FFF2E741
:102C40000020F0E71846F2E730B51F23012404FA0C
:102C500003F50D4205D113F1FF33F8D252B1012033
:102C600010E0082A11D0F9D9102A0CD0182AF6D170
:102C7000062BF4D800684161836823F018031A43D7
:102C80008260002030BD072BF3E70F2BF1E7000037
:102C9000324B1A69920741BF31494A6842F001023A
:102CA0004A601B691B0741BF2D4A536843F002036A
:102CB00053602A4B1A69D00641BF29494A6842F03D
:102CC00004024A601B69990641BF254A536843F0D4
:102CD00008035360214B1A69520641BF20494A68D4
:102CE00042F010024A601B691B0641BF1C4A536830
:102CF00043F020035360194B1A69D00541BF1849AE
:102D00004A6842F040024A601B69990541BF144A73
:102D1000536843F080035360104B1A69520441BF5B
:102D20000F494A6842F480724A601B691B0441BF24
:102D30000B4A536843F400735360084B9A69002AA6
:102D4000BFBF07494A6842F480624A609A6942F00C
:102D500000429A614CF2FA321A6170470020024038
:102D60002C060020074A536943F48023536172B64E
:102D700001F58073401A0A680A5004319942FAD169
:102D800062B6704700200240064B5A69002ABFBF56
:102D9000054A9A6002F188329A60BABF5869C00F3A
:102DA000002070470020024023016745034A536911
:102DB00043F0004353610020704700BF00200240F1
:102DC00070B5054602F066FB1E4C06462369D80323
:102DD00026D4236999071FD423691A071CD42369B1
:102DE000DB0619D423699E0616D423695D0613D425
:102DF0002369180610D42369D9050DD423699A05CF
:102E00000AD423695B0407D40E490A6912F400420C
:102E100002D18B69002B0CDAFFF73AFF012070BD5D
:102E20006B1CD3D002F036FB801BA842CED303200C
:102E3000F5E7086910F00100F1D001230B6110469D
:102E4000EDE700BF002002402DE9F047244C9A46F0
:102E50002378012B0746884691463FD001234CF248
:102E600050302370FFF7ACFF064620BB60601D4862
:102E7000056815F4806517BF0368257723F4806320
:102E800003601CBF02232377D7B9456945F00105CC
:102E90004561C8F800900125C8F804A04CF25030F4
:102EA000FFF78EFF064625B10E4A536923EA050552
:102EB000556100F051F8002323703046BDE8F087DB
:102EC0007B1E012B01D90025E8E749464046FFF764
:102ED00049FF022FF7D14FF48025DFE70226ECE708
:102EE0002C06002000200240094B10F0010F1EBFED
:102EF0005A6942F004025A61820742BF5A6942F499
:102F000000425A615A6942F480325A61704700BFE8
:102F1000002002400F4B5A6911F0010F14BF22F438
:102F2000006242F400625A615A694FF4FF6322F46E
:102F3000FF6293FAA3F3B3FA83F39840054B10436F
:102F400058615A6942F002025A615A6942F4803269
:102F50005A61704700200240144B1A7F012A02D0A8
:102F60001A7F032A0CD1124A116841F400611160E2
:102F7000116821F400611160116841F40071116061
:102F80001A7F022A02D01A7F032A0CD1084A11683C
:102F900041F480511160116821F480511160116871
:102FA00041F48061116000221A7770472C060020DE
:102FB000002002402DE9F047354C2378012B0646CE
:102FC000884662D001274CF250302770FFF7F8FE98
:102FD000054640BB2F4B60601A6812F4007F1A68E8
:102FE00026D022F400721A601A68510506D51A68B4
:102FF00022F480621A600323237700E02777336886
:10300000012B1FD17068FFF76FFF4CF25030FFF7B4
:10301000D7FE204A536923F4004323F004030546F6
:103020005361FFF799FF002323702846BDE8F0871E
:10303000520505D51A6822F480621A600223DBE784
:103040002077DCE74FF0FF33C8F80030B768DFF8CF
:103050004490DFF844A0D6E902321344BB42E0D9E1
:1030600071683846FFF756FF4CF25030FFF7A8FE64
:10307000D9F8143003EA0A03C9F8143018B1C8F8B3
:1030800000700546CDE70137E5E70225CDE700BF33
:103090002C0600200020024005F8FFFF024B1868B4
:1030A00000F4C060704700BF00700040024A5368DF
:1030B00043F40073536070470070004037B51E4DF5
:1030C000AB6DDA00044618D5FFF7E8FFB0F5007FD6
:1030D00023D1802C29D9A02C8CBF02200120174A93
:1030E000136823F0070303431360136803F0070317
:1030F000181A18BF012003B030BDAB6D43F08053E8
:10310000AB65AB6D03F080530193019BFFF7C6FFE6
:10311000AB6D23F08053AB65D8E7802C07D808D07F
:10312000A4F1700358425841D9E70020D7E70320A3
:10313000D5E70220D3E700BF001002400020024084
:103140002F4B9A6812F00C0F10B509D09A6802F054
:103150000C020C2A2DD1DA6802F00302012A28D1D0
:103160001A682849120755BFD3F894201A68C2F389
:103170000322C2F3031251F82220996811F00C0FB8
:103180000CBF10460020996801F00C010C2930D1C9
:10319000DC68D868C0F30210411C04F00300022868
:1031A00019D0032826D0B2FBF1F2D868C0F306206C
:1031B00017E09A6802F00C02042A07D09A6802F01D
:1031C0000C02082A04D110480022DCE70F48FBE774
:1031D00000200246D7E7DA680C48C2F30622B0FBAB
:1031E000F1F0DB68C3F34163013350435B00B0FB94
:1031F000F3F010BDDA680448C2F30622EFE700BF1F
:10320000001002404092000800127A000024F400EE
:1032100003682DE9F3410446D80639D5A94DAB68BA
:1032200013F00C0F5ED12B68990703D5A3690BB976
:1032300001207BE02B68206A1A0756BFD5F894302E
:103240002B681B0903F0F003984236D9FFF736FFCD
:103250000028EDD12B6843F008032B602B68226A0D
:1032600023F0F00313432B606B68E26923F47F4380
:1032700043EA02236B60FFF763FFAB68924AC3F334
:103280000313D35CD840914B18600F2002F0FDF877
:103290002368DE075DD423689D0700F1A5802368BD
:1032A000190700F1E38023685A0700F11181A16A30
:1032B000002940F07881002038E02B6843F00803B3
:1032C0002B602B6823F0F00303432B606B68E269EB
:1032D00023F47F4343EA02236B60FFF7EFFE0028ED
:1032E000C9D0A5E7A36923B32B6843F001032B6082
:1032F00002F0D0F806462B689B0711D52B6843F0E7
:1033000008032B602B68226A23F0F00313432B6021
:103310006B68E26923F47F4343EA02236B60B7E7FB
:1033200002F0B8F8801B0228E5D9032002B0BDE8FE
:10333000F0812B6823F001032B6002F0ABF8064606
:103340002B689F07A4D502F0A5F8801B0228F7D9A7
:10335000EBE75C4DAB6803F00C03082B09D0AB68BE
:1033600003F00C030C2B0BD1EB6803F00303032BCE
:1033700006D12B6898038ED56368002B8BD157E755
:103380006368B3F5803F10D12B6843F480332B6022
:1033900002F080F806462B6899033FF57CAF02F0F7
:1033A00079F8801BC828F6D9BFE7B3F5A02F04D160
:1033B0002B6843F480232B60E6E72A6822F48032EE
:1033C0002A602A6822F480222A60002BE0D102F0D1
:1033D00061F806462B689A037FF55DAF02F05AF854
:1033E000801BC828F6D9A0E7364DAB6803F00C0364
:1033F000042B09D0AB6803F00C030C2B13D1EB6842
:1034000003F00303022B0ED12B685B0503D5E368A1
:10341000002B3FF40DAF6B68226923F0F85343EAA9
:1034200002636B603BE7E3687BB12B6843F4807316
:103430002B6002F02FF806462B685F05EBD402F0F4
:1034400029F8801B0228F7D96FE72B6823F48073D3
:103450002B6002F01FF806462B6858057FF51FAF5A
:1034600002F018F8801B0228F6D95EE76369154D53
:103470009BB1D5F8943043F00103C5F8943002F0C5
:1034800009F80646D5F894309B073FF50CAF02F0DB
:1034900001F8801B0228F5D947E7D5F8943023F0CE
:1034A0000103C5F8943001F0F5FF0646D5F89430D5
:1034B0009F077FF5F8AE01F0EDFF801B0228F5D9DC
:1034C00033E700BF001002402592000814010020DD
:1034D0007B4DAB6DDE0027D4AB6D43F08053AB6505
:1034E000AB6D03F080530193019B0127754E336848
:1034F000D8051BD5A368012B29D1D5F8903043F00E
:103500000103C5F8903001F0C5FF41F28838064646
:10351000D5F890309A0740D5002F3FF4C8AEAB6D78
:1035200023F08053AB65C2E60027DFE7336843F43E
:103530008073336001F0AEFF80463368D905D9D47B
:1035400001F0A8FFA0EB08000228F6D9EDE6052B54
:1035500006D1D5F8903043F00403C5F89030CCE79D
:10356000D5F8902022F00102C5F89020D5F89020DF
:1035700022F00402C5F89020002BC4D101F08AFF8C
:1035800041F288380646D5F890309B07C4D501F043
:1035900081FF801B4045F6D9C7E601F07BFF801B09
:1035A0004045B5D9C1E6464B9A6802F00C020C2A98
:1035B0001D465AD01B68022923F080732B6037D137
:1035C00001F068FF06462B689F012BD4626BE36A0B
:1035D00043EA0223226B013A43EA0213A26B120967
:1035E00043EA4243E26B5208013A43EA4253226CF7
:1035F0005208013A43EA4263EB602B6843F0807360
:103600002B60EB6843F08073EB6001F043FF0446EE
:103610002B6898013FF54FAE01F03CFF001B0228DC
:10362000F6D982E601F036FF801B0228CBD97CE672
:103630002B68190106D42B689A005EBFEB6823F053
:103640000303EB60EB6823F0887323F48033EB60B3
:1036500001F020FF04462B689B017FF52CAE01F0A2
:1036600019FF001B0228F6D95FE69A68E16A02F0AA
:1036700003028A427FF4DCAD9A68216B02F070028B
:103680008A427FF4D5AD9A68616B02F4FE428A42A9
:103690007FF4CEAD9A68A16B02F400328A427FF4C7
:1036A000C7AD9A68E16B02F4C0028A427FF4C0ADF4
:1036B0009868236C00F0C060C01A18BF012035E67E
:1036C0000010024000700040554A136803F00703E1
:1036D0008B422DE9F04105460E462AD32B68D907C7
:1036E00034D429688A0700F181804D4A136803F0B9
:1036F0000703B34200F2828011F0040F494C40F0FE
:1037000088800B0706D5A3682A6923F4605343EA2F
:10371000C203A360FFF714FDA368434AC3F3031376
:10372000D35CD840414B18600F2001F0AEFE002062
:103730000AE0136823F007030B431360136803F0D8
:1037400007038B42CAD00120BDE8F0816A68354C7E
:10375000032A23681BD113F0007FF4D0A36823F061
:1037600003031343A36001F095FE6B68032B074628
:1037700041F2883817D1A36803F00C030C2BB0D0AA
:1037800001F088FEC01B4045F5D90320DCE7022A82
:1037900002D113F4003FE0E712B913F0020FDCE7A7
:1037A00013F4806FD9E7022B0AD1A36803F00C034E
:1037B000082B96D001F06EFEC01B4045F5D9E4E71A
:1037C00073B9A36813F00C0F8BD001F063FEC01B1C
:1037D0004045F6D9D9E701F05DFEC01B4045D4D87D
:1037E000A36803F00C03042BF5D17AE70D4AA8680F
:1037F000936823F0F0030343936076E7136823F0A4
:10380000070333431360136803F00703B3429AD1ED
:1038100072E7A368EA6823F4E0631343A36070E7E8
:1038200000200240001002402592000814010020F0
:10383000044B054A9B68C3F30223D35C034A106818
:10384000D840704700100240359200081401002053
:10385000044B054A9B68C3F3C223D35C034A106838
:10386000D840704700100240359200081401002033
:103870000F2303600B4B9A6802F0030242609A68C0
:1038800002F0F00282609A6802F4E062C2609B6813
:10389000DB0803F4E0630361034B1B6803F00703D9
:1038A0000B6070470010024000200240F8B5444B06
:1038B000DA6812F0030F05460E4600681C462AD04F
:1038C000DA6802F0030282423CD1002A3AD0DB6877
:1038D0006A68C3F302130133934233D1236823F0A0
:1038E0008063236001F0D6FD074623681A0132D4B5
:1038F000AB681F02002E35D0012E4ED12A692169F6
:103900005208531E21F4C00222F4FE423A4342EA16
:103910004352226131E0022810D0032814D001283C
:1039200010D11B689F071CD5E3686A6823F07303F6
:10393000013A184340EA0210E060CFE71B6813F435
:10394000806FF1D101200CE01A689103ECD41B6860
:1039500013F4802FF5E701F09DFDC01B0228C4D9A8
:103960000320F8BD2169EB6821F41F3121F4407177
:103970001B09394341EA43412161236843F08063D5
:10398000236001F087FD064623681B0112D52369D9
:10399000AA69134323610020E3E76B6922695B088E
:1039A000591E22F0C06323F4FE433B4343EA4163C4
:1039B0002361E2E701F06EFD801B0228E4D9CFE726
:1039C00000100240F8B53C4BDA6812F0030F0546D0
:1039D0000E4600681C4627D0DA6802F003028242D5
:1039E00039D1002A37D0DB686A68C3F30213013388
:1039F000934230D1236823F08053236001F04AFDC5
:103A0000074623689A002FD4AB6818029EB36369F7
:103A1000296923F0C063490823F4FE4301390343B5
:103A200043EA4163636131E0022810D0032814D0D7
:103A3000012810D11B689F071CD5E3686A6823F032
:103A40007303013A184340EA0210E060D2E71B68B2
:103A500013F4806FF1D101200CE01A689103ECD4CB
:103A60001B6813F4802FF5E701F014FDC01B02283A
:103A7000C7D90320F8BD6269EB6822F41F3222F433
:103A800040721B09024342EA43426261236843F0E9
:103A90008053236001F0FEFC064623689B0005D599
:103AA00063696A69134363610020E3E701F0F2FC94
:103AB000801B0228F1D9DCE7001002402DE9F34712
:103AC000066816F40066044624D0416EB1F5800FF6
:103AD0002CD002D8C1B101261CE0B1F5000F0DD0E9
:103AE000B1F5400FF7D14E4A616ED2F8883023F419
:103AF00040030B43C2F8883000260BE0484AD368E5
:103B000043F48033D360EEE70430FFF7CFFE064680
:103B10000028E8D02368D80406D5A16EB1F1807FD3
:103B200073D008D8A9B10126354621E00021203004
:103B3000FFF748FFEBE7B1F1007F04D0B1F1407F20
:103B4000F1D1354609E0364AD36843F48033D36077
:103B5000F7E7201DFFF7AAFE0546002D5BD1304A8E
:103B6000A16ED2F8883023F040730B43C2F888303E
:103B70002368990340F15A81294FBB6DDA004CD478
:103B8000BB6D43F08053BB65BB6D03F08053019365
:103B9000019B4FF00108DFF88C90D9F8003043F416
:103BA0008073C9F8003001F075FC8246D9F8003006
:103BB000DB0539D5002D3ED1D7F8903013F4407392
:103BC00015D0D4F884209A4211D0D7F89030D7F885
:103BD000902042F48032C7F89020D7F8902023F448
:103BE000407322F48032C7F89020C7F89030D8078D
:103BF00000F10C81D7F89030D4F8842023F440737E
:103C00001343C7F89030354615E0002104F1200039
:103C1000FFF7D8FEA0E72E46AAE74FF00008BAE764
:103C2000001002400070004001F034FCA0EB0A00DC
:103C30000228BBD90325B8F1000F03D0BB6D23F0D8
:103C40008053BB652368DA0708D58E49A06BD1F88D
:103C5000882022F003020243C1F888209F0708D57C
:103C60008849E06BD1F8882022F00C020243C1F8A9
:103C700088205E0708D58349206CD1F8882022F07F
:103C800030020243C1F88820180708D57D49606CCE
:103C9000D1F8882022F0C0020243C1F88820D9065A
:103CA00008D57849A06CD1F8882022F440720243EC
:103CB000C1F888209A0608D57249E06CD1F88820AE
:103CC00022F440620243C1F888209F0508D56D495F
:103CD000E06DD1F8882022F440220243C1F8882008
:103CE0005E0508D56749206ED1F8882022F440127D
:103CF0000243C1F88820580608D56249206DD1F8E2
:103D0000882022F440520243C1F88820190608D5C1
:103D10005C49606DD1F8882022F440420243C1F82A
:103D20008820DA0508D55749A06DD1F8882022F4FB
:103D300040320243C1F888209B040FD5514AE16EFE
:103D4000D2F8883023F040630B43B1F1006FC2F822
:103D500088306DD1D36843F48013D36023681F0388
:103D60000FD5484A216FD2F8883023F040630B43C7
:103D7000B1F1006FC2F8883065D1D36843F4801385
:103D8000D36023685E030FD53E4A616FD2F8883056
:103D900023F040630B43B1F1006FC2F888305DD16E
:103DA000D36843F48013D3602368580412D535498F
:103DB000A26FD1F8883023F040531343B2F1805FF3
:103DC000C1F8883055D10221201DFFF76FFD002872
:103DD00018BF05462268110408D52A49E06FD1F8BA
:103DE000883023F080430343C1F88830D30309D5DA
:103DF000244AD4F88010D2F8883023F000430B43D3
:103E0000C2F88830284602B0BDE8F08701F042FBD6
:103E100041F288390546D7F8903099073FF5EAAE68
:103E200001F038FB401B4845F5D903E7354609E763
:103E3000B1F1806F92D10121201DFFF737FD0028DD
:103E400018BF05468AE7B1F1806F9AD10121201D84
:103E5000FFF72CFD002818BF054692E7B1F1806FEF
:103E6000A2D10121201DFFF721FD002818BF054622
:103E70009AE7B2F1005FADD1022104F12000FFF713
:103E8000A1FDA4E70010024003685A6822F0E00296
:103E90005A604268B2F5827F0AD18268B2F5004F5B
:103EA00002D0B2F5806F03D11A6822F040021A6086
:103EB000826AB2F5005F07D11A6822F400521A60D4
:103EC0001A6842F400521A60012380F85D30002322
:103ED00080F85C30032070472DE9F041DDF8188050
:103EE00005460F4616461C462A68936837EA0303C0
:103EF0000CBF012300239E4202D10020BDE8F081C7
:103F0000631CF2D024B92846BDE8F041FFF7BCBFDE
:103F100001F0C0FAA0EB0800A042E5D3F3E72DE9D9
:103F2000F341DDF8208007460E4615461C463A68E8
:103F300090683040A84203D1002002B0BDE8F08173
:103F4000B6F5C06F06D12DB9137BDBB28DF8073003
:103F50009DF80730631CEBD02CB9384602B0BDE8A1
:103F6000F041FFF791BF01F095FAA0EB0800A042E5
:103F7000DDD3F2E74368B3F5827FF7B504460E461A
:103F800017460BD18368B3F5004F02D0B3F5806FAD
:103F900004D12268136823F040031360009733466E
:103FA000002280212046FFF797FF054628B1236EA7
:103FB00043F020032366032514E06368B3F5827F92
:103FC00010D1A368B3F5004F02D0B3F5806F09D1CB
:103FD0000097334600224FF4C0612046FFF79FFF51
:103FE0000028E4D1284603B0F0BD73B50B4600921B
:103FF0000D4616464FF4C05100220446FFF78FFFCE
:10400000024628B1236E43F020032366032011E00B
:1040100000962B4680212046FFF75EFF02460028CF
:10402000F0D100962B464FF4C0612046FFF777FF92
:104030000028E7D102B070BD7047F8B504460028EB
:1040400053D090F85D3003F0FF021BB980F85C207C
:10405000FFF7F2FF0223226884F85D301368E568F9
:1040600023F04003B5F5E06F13604FF000033ED836
:104070004FF4805000D0A362236B2BB9B5F5E06FED
:104080008CBF022301232363D4E901373B43276913
:10409000A169A66A3B4367693B43E7693B43276ADB
:1040A0003B43334301F400773B431360236B022B04
:1040B00002BF136843F400631360636A1D43636BBC
:1040C000090C1D4301F00401B6F5005F45EA010546
:1040D00040EA050008BFE36A506008BF1361002092
:1040E0000123206684F85D30F8BD0120FCE7184606
:1040F000B5F5706FBEE72DE9F3411E4690F85C30D0
:10410000012B04460D46904600F0CC80012380F838
:104110005C3001F0BFF9074694F85D00C0B2012899
:1041200040F0BE80002D6DD0B8F1000F6AD003239F
:1041300084F85D30002323662364A4F83E80A4F84D
:104140004430A4F84630C4E91333A3682068A5635B
:10415000B3F5004F08BF0368A4F83C8004BF43F4E4
:1041600080430360A36AB3F5005F07D1036823F4BB
:1041700000530360036843F4005303600368E2687C
:104180005B065EBF036843F040030360B2F5E06F77
:10419000636848D91BB1E38F9BB2012B06D135F878
:1041A000023BC360E38F013B9BB2E387E38F9BB28B
:1041B000F3B9A36AB3F5005F04D12268136843F42E
:1041C000805313603A4631462046FFF70EFF08B190
:1041D00020232366A368B3F5004F57D122681368E4
:1041E00023F040031360206E003018BF012009E067
:1041F00023689A68900703D535F8022BDA60D1E777
:104200004EB90320012384F85D30002384F85C302C
:1042100002B0BDE8F081711CC8D001F03BF9C01BB1
:10422000B042C3D3EDE71BB1E38F9BB2012B09D1A1
:10423000E38F012B15D935F8023BC360E38F023BB6
:104240009BB2E387E38F9BB2002BB2D023689A68BE
:10425000920711D5E28F012A0BD935F8022BDA60CB
:10426000ECE72B780373E38F013B9BB2E3870135C7
:10427000E8E72A781A73F6E7002EC2D0731CE1D063
:1042800001F008F9C01BB042DCD3BAE7002BAAD179
:1042900001932368DA6801929B680193019BA2E76E
:1042A0000220AFE70220B3E72DE9F04385B098463E
:1042B0000023ADF80E3090F85C300C9E012B0446C4
:1042C0000D46914600F0A181012380F85C3001F099
:1042D000E1F894F85D306168DBB2012B07460AD043
:1042E000B1F5827F40F08F81A268002A40F08B8177
:1042F000042B40F08881002D00F06E81B9F1000F91
:1043000000F06A81B8F1000F00F0668194F85D302A
:10431000A26AC4F84090042B1CBF052384F85D30CA
:104320000023B2F5005F2366C4E91333A4F8468086
:10433000A4F84480A563A4F83E80A4F83C802368D8
:1043400007D11A6822F400521A601A6842F4005227
:104350001A60E068B0F5E06F03D8B4F84620012A8F
:1043600036D95A6822F480525A601A6852065EBFE3
:104370001A6842F040021A60B0F5E06F7DD919B1B9
:10438000E28F92B2012A06D135F8022BDA60E38F70
:10439000013B9BB2E3874FF00108E38F9BB2DBB98F
:1043A000B4F846309BB2BBB9A36AB3F5005F40F0E6
:1043B000FC8001220097334611462046FFF78CFD12
:1043C000002800F0E780236E43F00203236649E0F3
:1043D0005A6842F48052C7E7B8F1000F28D0E38F43
:1043E0009BB22BB323689A68900721D535F8022B2E
:1043F000DA60E28F013A92B2E287B4F83E801FFAA7
:1044000088F8B8F1000F11D1A16AB1F5005F0FD1A2
:104410001A68510706D45A68120742BF1A6842F454
:1044200000721A601A6842F480521A604FF0000855
:10443000B4F846309BB273B123689A68D0070AD5A6
:10444000DB6829F8023BB4F84630013B9BB2A4F884
:1044500046304FF00108711C9FD001F01BF8C01BC3
:10446000B0429AD30325012384F85D30002384F8F9
:104470005C30284605B0BDE8F08319B1E28F92B2F6
:10448000012A09D1E28F012A68D935F8022BDA60B6
:10449000E38F023B9BB2E3874FF00108E38F9BB2AF
:1044A0002BB9B4F846309BB2002B3FF47DAFB8F186
:1044B000000F2CD0E38F9BB24BB323689A6892070E
:1044C00025D5E28F012A51D935F8022BDA60E38F26
:1044D000023B9BB2E387B4F83E801FFA88F8B8F13C
:1044E000000F12D1A26AB2F5005F10D123681A68DA
:1044F000500706D45A68110742BF1A6842F4007286
:104500001A601A6842F480521A604FF00008B4F83A
:1045100046309BB2D3B123689A68D20716D5B4F857
:104520004620012A2AD9DA6829F8022BB4F8462055
:10453000023A92B2A4F84620B4F84620012A03D8E1
:104540005A6842F480525A604FF00108731CA5D09B
:1045500000F0A0FFC01BB042A0D383E72A781A73F3
:10456000E38F013B9BB2E387013595E72A781A7305
:10457000E38F013B9BB2E3870135ACE71B7B89F8F6
:104580000030B4F84630013B9BB2A4F8463009F144
:104590000109D9E7E2682368B2F5706F1ED1DB68C4
:1045A0009BB2ADF80E30BDF80E302268956815F05C
:1045B000100507D0236E43F0020323664FF6EF7316
:1045C000936001253A4631462046FFF70EFD00284C
:1045D0003FF449AF20232366012544E71B7BADF858
:1045E0000E30BDF80E30236B022BDED10122009776
:1045F000334611462046FFF76FFC00287FF4E3AEF8
:1046000023681B7BCDE702252DE7022531E72DE945
:10461000FF411D460023ADF80E304368B3F5827F9D
:1046200004460E4690460CD1836853B9042380F8A3
:104630005D30134600950A46FFF736FE04B0BDE82C
:10464000F08194F85C30012B00F0F680012384F8AF
:104650005C3000F01FFF074694F85D00C0B20128EF
:1046600040F0E880002E00F09280B8F1000F00F0DA
:104670008E80A26A2664042384F85D30B2F5005F60
:104680004FF000032366A363A4F84680A387E38763
:10469000C4E91333A4F8448023680DD11A6822F4C6
:1046A00000521A601A6842F400521A60B4F84620A8
:1046B000013A92B2A4F84620E1685A68B1F5E06F79
:1046C0008CBF22F4805242F480525A60A268B2F544
:1046D000004F02BF1A6822F480421A601A6850061E
:1046E0005EBF1A6842F040021A60B1F5E06F1ED951
:1046F000B4F846309BB2FBB123689A68D10755D510
:10470000DB6826F8023BB4F84630013B9BB2A4F8C4
:104710004630EDE723689A68D20736D51B7B06F84A
:10472000013BB4F84630013B9BB2A4F84630B4F8E4
:1047300046309BB2002BEDD1A36AB3F5005F4AD19E
:104740002268136843F480531360012200972B46BC
:1047500011462046FFF7C0FBC0B9E2682368B2F5F6
:10476000E06F8ABFDB681B7B33804FF0010298BF8C
:10477000337000972B4611462046FFF7ADFBF8B18A
:10478000236E43F00203236600E03DB903200123BA
:1047900084F85D30002384F85C304FE7681CC6D095
:1047A00000F078FEC01BA842C1D3EFE7002DEDD08A
:1047B0006A1C9DD000F06EFEC01BA84298D3E5E7AE
:1047C000E2682368B2F5706F1DD1DB689BB2ADF86B
:1047D0000E30BDF80E303A4629462046FFF7CAFB98
:1047E00008B12023236622689368DB0606D5236E72
:1047F00043F0020323664FF6EF739360206E0030A0
:1048000018BF0120C3E71B7BADF80E30B2F5E06F97
:10481000BDF80E30DFD1236B022BDCD101220097D3
:104820002B4611462046FFF757FB0028A8D12368E6
:104830001B7BCCE70220AAE70220FFE670470000BE
:10484000304A0368904212D0B0F1804F0FD0A2F5E9
:10485000943290420BD002F58062904207D002F56C
:104860008062904203D002F59432904219D14A6896
:1048700023F070031343234A90421DD0B0F1804FC0
:104880001AD0A2F59432904216D002F5806290427E
:1048900012D002F5806290420ED002F5943290421E
:1048A0000AD0194A904207D002F58062904203D0A4
:1048B00002F58062904203D1CA6823F44073134327
:1048C0004A6923F08003134303608B68C3620B685B
:1048D00083620C4B98420FD003F5006398420BD0D3
:1048E00003F54063984207D003F58063984203D0F4
:1048F00003F58063984201D10B690363012343618F
:10490000704700BF002C01400040014010B5044634
:10491000A0B190F83D3003F0FF021BB980F83C20B5
:10492000FFF78CFF022384F83D302068211DFFF73C
:1049300087FF012384F83D30002010BD0120FCE7F3
:10494000036A10B501248C4023EA04030362036A5E
:104950008A401A43026210BD10B504460122006865
:10496000FFF7EEFF23680E4A93420FD002F5006274
:1049700093420BD002F54062934207D002F5806269
:10498000934203D002F58062934203D15A6C42F401
:1049900000425A641A6842F001021A60002010BDF9
:1049A000002C014010B5044600220068FFF7C8FF44
:1049B0002368184A93420FD002F5006293420BD04D
:1049C00002F54062934207D002F58062934203D021
:1049D00002F5806293420DD1196A41F2111211421F
:1049E00008D1196A40F24442114202BF5A6C22F4C3
:1049F00000425A64196A41F21112114208D1196A2F
:104A000040F24442114202BF1A6822F001021A60C9
:104A1000002010BD002C0140704700000268C169F1
:104A2000F8B5044683680069156803436069034369
:104A3000BA480B432840034313605368E06823F4EB
:104A4000405303435360B64BA0699A421CBF236A8C
:104A50001843936823F4306303439360B14B9A4245
:104A600019D103F55843B04AD3F8883003F0030353
:104A7000B1F5004FD35C40F03981082B00F2D580AE
:104A8000DFE813F01B01D0000201D3001501D300B1
:104A9000D300D3003900A54B9A4207D103F5E63382
:104AA000A34AD3F8883003F00C03E1E7A14B9A4204
:104AB00026D103F5E433D3F8883003F03003102B0C
:104AC00000F0EB800BD8002B56D0954B9A4264D067
:104AD000B1F5004F00F0A98001220023B1E0202BA6
:104AE00000F0CC80302BF0D18D4B9A425BD0B1F5E9
:104AF000004F40F0BE806068430803F58033C9E092
:104B00008D4B9A420ED103F5E233D3F8883003F08F
:104B1000C003402B00F0C180D5D9802B00F0AE80BF
:104B2000C02BE0E7854B9A4211D103F5E033D3F86F
:104B3000883003F44073B3F5807F00F0AE80C2D9B3
:104B4000B3F5007F00F09A80B3F5407FCBE7744B5C
:104B50009A42BDD103F5C833D3F8883003F44063DB
:104B6000B3F5806F00F09980ADD9B3F5006F00F018
:104B70008580B3F5406FB6E7694B9A4240F09A8062
:104B8000FEF756FE002318B9024607E06C480223E0
:104B9000626802EB4201814209D901220023C4E983
:104BA00018331046F8BD08234FF40040F0E7B0EB8F
:104BB000023FF2D8082B32D8DFE803F0053112317A
:104BC000253131312800FEF733FE62684FF48071E1
:104BD00056080027E1FB006700233046394607E00E
:104BE000584E5508002770194FF0000347F1000197
:104BF00003F04EF90022544BA0F540719942CCD8F5
:104C00002368D860CAE7FEF79BFADEE75008002663
:104C100010F500004FF0000346F10001E8E7012223
:104C20000020E8E7FEF714FE49E0012200234EE0F1
:104C3000FEF7FEFD626800EB5203B3FBF2F39BB29A
:104C40000022A3F110004FF6EF718842A5D8216829
:104C5000CB60A3E7FEF7FCFDECE76068430803F5D3
:104C6000740303F51053B3FBF0F3E8E7FEF768FABB
:104C7000E0E76068430803F50043F4E7284B9A42F5
:104C800084D0B1F5004FE8D16068430803F1F473B4
:104C900003F59043B3FBF0F317E0214B9A4203D1A5
:104CA000FEF74EFA04236EE7B1F5004FDED1FEF7B2
:104CB00047FA04E0B1F5004FBAD1FEF7B9FD6168DB
:104CC0004A0802EB4003B3FBF1F39BB20022A3F1CD
:104CD00010004FF6EF7188423FF65FAF23F00F01EF
:104CE0002068C3F342030B43C36057E7082B3FF62A
:104CF00054AF01A252F823F0314C0008554C000883
:104D00005B4C00089B4B00086D4C00089B4B000857
:104D10009B4B00089B4B0008734C0008F369FFEFA6
:104D20000080004000380140149200080044004018
:104D30001892000800480040004C0040005000401D
:104D40000024F400000024F4FFFC0F00436ADA079B
:104D500010B506D50168846A4A6822F400322243FD
:104D60004A609C0706D50168C46A4A6822F480320A
:104D700022434A60590706D50168046B4A6822F449
:104D8000802222434A601A0706D50168446B4A68AC
:104D900022F4004222434A60DC0606D50168846B97
:104DA0008A6822F4805222438A60990606D50168F7
:104DB000C46B8A6822F4005222438A605A060FD5D7
:104DC0000168046C4A6822F480122243B4F5801F03
:104DD0004A6005D14A68446C22F4C00222434A600A
:104DE0001B0606D50268816C536823F400230B432D
:104DF000536010BD2DE9F041069D04460F4616464E
:104E000098462168CA6937EA02030CBF01220022D2
:104E1000B24201D0002014E06B1CF3D09DB923688E
:104E20001A6822F4D0721A609A6822F001029A601D
:104E3000202384F8713084F87230002384F87030B5
:104E40000320BDE8F08100F025FBA0EB0800A8429C
:104E5000D7D9E4E773B504460026466700F01AFB8D
:104E600023681B681A07054617D423681B685B076D
:104E70000AD56FF07E43009300222B464FF4800149
:104E80002046FFF7B7FFA0B92023002084F8713037
:104E900084F8700084F872300CE06FF07E43009369
:104EA000324603464FF400112046FFF7A3FF0028C7
:104EB000DBD0032002B070BD10B5044660B390F89B
:104EC000713003F0FF021BB980F87020FFF7A4FDDA
:104ED0002268242384F87130136823F001031360DF
:104EE0002046FFF79BFD012816D0636A13B12046C8
:104EF000FFF72CFF23685A6822F490425A609A68A0
:104F000022F02A029A601A6842F0010220461A60D2
:104F1000BDE81040FFF79EBF012010BD90F8703033
:104F2000012B0FD00268242380F87130136843F0FE
:104F300002031360202380F87130002380F8703062
:104F4000184670470220704790F87030012B0FD040
:104F50000268242380F87130136823F00203136081
:104F6000202380F87130002380F870301846704795
:104F70000220704790F87030012B0FD00268242374
:104F800080F87130936823F400039360202380F845
:104F90007130002380F87030184670470220704747
:104FA000234A2449136824481B0755BFD2F894307C
:104FB0001368C3F30323C3F3031310B551F823405D
:104FC000916801F00C0108290ED00C290ED004299B
:104FD0002CD11A4B03609368194AC3F30313D25CB4
:104FE0000368D340036010BD164BF3E7D168D36864
:104FF00001F00301C3F30213022903F1010304D0FA
:10500000032911D0B4FBF3F302E00C49B1FBF3F335
:10501000D468D168C1F34161C4F30624013163430C
:105020004900B3FBF1F3D5E70649EFE70460D2E7A7
:105030000010024040920008140100200024F400F7
:105040002592000800127A00002070470020704767
:1050500030B52C4D87B00C460023298801934FF6BC
:10506000FF7399421DBF284B03EA812303F10063BC
:105070004FF00163A34204D84FF0FF34204607B03D
:1050800030BDB4F1006FF7D3FDF77EFE0028F3D1F9
:105090001E4B9A6942F000429A614CF2FA321A6150
:1050A0002B884FF6FF72934218BF1949194A08BF5F
:1050B000194912681CBF01EA432101F100618C42C9
:1050C00034BF04F17843631AD2054FEAD32314D4D2
:1050D0008C422CBF022401240022049301A9012345
:1050E00002A8CDE902240593FDF764FF003018BF44
:1050F00001204442FDF75AFEC0E78C422CBF012438
:105100000224E9E7E075FF1F00FC3F000020024099
:1051100000FE1F000000014000000808F7B51F4610
:105120002C4B1B8816464FF6FF7293421DBF2A4A2E
:1051300002EA832202F100624FF001628A420C46C9
:1051400004D84FF0FF35284603B0F0BDB1F1006F31
:10515000F7D37B07F5D1FDF717FE0028F1D11F4AE1
:1051600091694CF2FA3341F0004116F00305916168
:105170002744136128D1A74220D9EDB9D6E90023ED
:1051800021462846FDF760FE00BB08340836F2E7EA
:105190002B46F25C0DF803200133082BF9D1DDE931
:1051A000002321460020FDF74FFE50B90834083691
:1051B000A74203D9002DEBD04FF0FF35FDF7F6FDE8
:1051C000C1E74FF0FF35F3E70546F1E74FF0FF3554
:1051D000D1E700BFE075FF1F00FC3F000020024048
:1051E0000C4B1A884FF6FF739A421DBF0A4B03EA15
:1051F000822303F100634FF001638B4207D9B1F1C1
:10520000006F34BF4FF0FF304FF4006070474FF035
:10521000FF307047E075FF1F00FC3F00082070471B
:105220004FF0006070470000054B1B884FF6FF727F
:1052300093421ABF034800EA83204FF4801070475E
:10524000E075FF1F00FC3F00FF20704738B5456840
:105250000446204600F0B0FA0028FAD07823054A28
:105260006B43D358E268988C0AB9C0B238BDC0F31A
:105270000800FBE74C06002070B5466805460C4662
:10528000284600F0A9FA0028FAD07823054A73438B
:10529000D358EA6812B9E4B21C8570BDC4F308049F
:1052A000FAE700BF4C06002008B50B4A836E934214
:1052B00007D002F57442934207D0A2F57842934298
:1052C00007D1BDE80840FEF7B3BABDE80840FEF7D5
:1052D000BFBA0248FDF7FAF8003C0040709200089F
:1052E00030B5046891FAA1F3B3FA83F303255B00A8
:1052F00005FA03F324EA030391FAA1F1B1FA81F16B
:10530000490002FA01F11943016030BD10B5394C72
:105310008AB007286AD8DFE800F004111C27323D64
:10532000485EE36C43F00103E364E36C03F00103C4
:105330000193019B4FF090400AB010BDE36C2E48E2
:1053400043F00203E364E36C03F002030293029B65
:10535000F2E7E36C294843F00403E364E36C03F0F1
:1053600004030393039BE7E7E36C254843F008033A
:10537000E364E36C03F008030493049BDCE7E36C51
:10538000204843F01003E364E36C03F0100305933B
:10539000059BD1E7E36C1C4843F02003E364E36C16
:1053A00003F020030693069BC6E7A36D43F08053EA
:1053B000A365A36D03F080530793079BFDF776FE6B
:1053C000E36C124843F04003E364E36C03F04003F2
:1053D0000893089BB0E7E36C0D4843F08003E36457
:1053E000E36C03F080030993099BA5E70948FDF7E7
:1053F0006DF800BF0010024000040048000800489B
:10540000000C004800100048001400480018004834
:10541000001C00488A92000810B50021044604F0E0
:105420000F0400F003F90120A04010BD70B5044640
:105430004B1C0E46217418D0C1F30310FFF766FF12
:1054400005463046FFF7E8FF237C084A656103F014
:105450000F03206052F82330A36105F1100363604D
:1054600005F118032835A360E56070BDAC92000813
:1054700090F9100000F062B9D0E905030A4611B9AD
:105480001946FFF72DBF0122FAE708B500F0BAFC74
:10549000002008BD08B50A4B1B684BB1FCF7FCFEA9
:1054A000FCF7E4FE4FF47A72002302F0F1FC08BD31
:1054B00000F008FD4FF47A73B0FBF3F0F7E700BF9C
:1054C000A405002060B14368073B192B9FBF054826
:1054D000D840C04300F0010088BF012080F00100E7
:1054E000704700BF03020002224B23499A6C42F42A
:1054F00080529A649B6CC26882B003F4805301931B
:10550000019B1E4B1A604268072AC3BF01239340C8
:1055100003F1FF33FF230B60194B01211962194975
:10552000196040F20111998081681961082A0168A7
:1055300099601BD011D8072A1AD0027C002A14BF08
:10554000202200225A61427C0D48002A14BF80228A
:1055500000229A6102B0FDF711BB102A04D0202A64
:10556000EBD10022DA60E8E70822FBE71022F9E736
:105570001822F7E70010024078050020A00500205F
:105580007C050020003002400A4620B119B10146D6
:105590000148FDF72DBB70477C050020094B1A68B8
:1055A0001068DA68182A05D19A68092A02D19B691D
:1055B00003B94000044B1B685840044B1B6818405B
:1055C000704700BF7C050020A00500207805002062
:1055D00008B5FFF7E5FCFDF765FAFDF73BFAFFF7C5
:1055E000DFFC024B01221A6008BD00BFA4050020A9
:1055F00030B5C46891FAA1F3B3FA83F303255B00D5
:1056000005FA03F324EA030391FAA1F1B1FA81F157
:10561000490002FA01F11943C16030BD012A02D0EC
:10562000022A18BF0022FFF7E3BF0000F8B500F020
:105630000F07414BC0F3031053F827400E4601F00B
:105640000705FFF763FE836894FAA4F2B2FA82F2C8
:105650000321520001FA02F223EA020194FAA4F3B0
:10566000B3FA83F35A00032393400B43022D836064
:105670002ED0032D5DD06F1E7B427B41016894FAD2
:10568000A4F2B2FA82F20327520007FA02F221EAE8
:10569000020194FAA4F2B2FA82F2520093400B4350
:1056A0000360C36A710305F1FF354CBF2343A34375
:1056B000012DC36205D8436832074CBF2343A3437F
:1056C0004360C6F301122146BDE8F840FFF7A6BFCC
:1056D000072FC6F3032217D9476A230A93FAA3F1C7
:1056E000B1FA81F14FF00F0C89000CFA01F127EAB1
:1056F000010193FAA3F3B3FA83F39B0002FA03F3D5
:105700000B4343620223B9E7036A94FAA4F1B1FAA6
:1057100081F10F27890007FA01F123EA010194FAC8
:10572000A4F3B3FA83F39B0002FA03F30B4303627F
:10573000E8E72B46A2E700BFAC92000838B500F0BE
:105740000F021C4BC0F303100D4653F82240FFF725
:10575000DDFD016894FAA4F2B2FA82F35A00032341
:1057600093400B4094FAA4F2B2FA82F25200D34072
:10577000013B012B05D8EB1E022B436809D82343BC
:105780004360032D08D101222146BDE83840FFF7D0
:1057900045BF23EA04034360012DF4D0052D01D059
:1057A000022D01D10222EFE721460022BDE8384058
:1057B000FFF71EBFAC920008426878235343054AA6
:1057C000D358DA69120744BF08221A62D869C0F3B5
:1057D000401070474C060020426878235343034A28
:1057E000D358D869C0F3C010704700BF4C060020E2
:1057F00042680168782353431C4A10B599509C189D
:1058000082686260C368A3600369E36043692361DF
:10581000036AA3610023A4F85230E361A4F8503076
:10582000A4F85A30A4F8583090F9193001330FD148
:10583000082363610E4B994205D1B2F5165F2046ED
:105840000DD8FFF76BFB2046BDE81040FFF734BBD7
:1058500090F9183001330CBF04230C23E9E7FFF75C
:1058600089FB2046FFF770FBEDE700BF4C060020E8
:105870000080004030B502681D4B81609A42B5B08F
:10588000044624D10021842213A802F095F8194D72
:1058900020231293296811F480610FD1402202A8BD
:1058A00002F08AF8022301934FF4807304930123DA
:1058B0000B9301A810230593FDF7AAFC2B685B0549
:1058C00009D44FF4806312A82593FEF7F7F8204619
:1058D000FFF78EFF0AE04FF4006312A82593FEF74E
:1058E000EDF82046FFF784FF0028EAD135B030BD3F
:1058F0000080004000100240124B984217D0A3F5E0
:105900007443984215D003F58063984213D003F591
:105910008063984211D003F5806398420FD003F55D
:10592000405398420CBF05204FF0FF3070470020D5
:105930007047012070470220704703207047042001
:10594000704700BF00380140F0B50E4687B00446EE
:10595000574930461546FCF795FA564907462846FA
:10596000FCF790FA01463846FCF76AFA2A2E2060C6
:105970000AD02B2D08D04E492A20FCF783FAB842D2
:1059800021D14D48FCF7A2FD012720684B4B9842DE
:105990001BD103F558431A6E42F480421A661B6EFF
:1059A00003F480430093009B454B98422AD103F5B2
:1059B000C833DA6D42F00102DA65DB6D03F00103F2
:1059C0000593059B1EE00027DFE73E4B98420BD175
:1059D00003F5E6339A6D42F400329A659B6D03F449
:1059E00000330193019BDFE7374B98423CD103F52D
:1059F000E4339A6D42F480229A659B6D03F4802310
:105A00000293029BFFF778FF294960603046FCF75C
:105A1000F5F928492846FCF7F1F9721C03D0012159
:105A20003046FFF78BFE6B1C03D001212846FFF7A1
:105A300085FE002F36D14FF41653A3600023C4E92E
:105A4000033363612362267665762046FFF7D0FE36
:105A50005FB31E4B1E4801221A6021464C2207B03C
:105A6000BDE8F04001F09DBF1A4B98420BD103F501
:105A7000E2339A6D42F400229A659B6D03F4002391
:105A80000393039BBEE7144B98428DD103F5E0339B
:105A90009A6D42F480129A659B6D03F4801304930F
:105AA000049BAFE74FF4E133C7E707B0F0BD00BF99
:105AB000C491000888910008EC9200080038014069
:105AC000008000400044004000480040A80500203D
:105AD0001C090020004C0040005000400268136880
